{
  "contractName": "HCA_Elections",
  "abi": [
    {
      "inputs": [],
      "stateMutability": "nonpayable",
      "type": "constructor"
    },
    {
      "anonymous": false,
      "inputs": [
        {
          "indexed": false,
          "internalType": "uint64",
          "name": "candidateID",
          "type": "uint64"
        },
        {
          "indexed": false,
          "internalType": "address",
          "name": "candidateAddress",
          "type": "address"
        }
      ],
      "name": "CandidateAdded",
      "type": "event"
    },
    {
      "anonymous": false,
      "inputs": [],
      "name": "CandidateSignUpStart",
      "type": "event"
    },
    {
      "anonymous": false,
      "inputs": [
        {
          "indexed": false,
          "internalType": "uint64",
          "name": "voterID",
          "type": "uint64"
        },
        {
          "indexed": false,
          "internalType": "uint64",
          "name": "candidateID",
          "type": "uint64"
        },
        {
          "indexed": false,
          "internalType": "uint64",
          "name": "coinIndex",
          "type": "uint64"
        }
      ],
      "name": "CoinSent",
      "type": "event"
    },
    {
      "anonymous": false,
      "inputs": [
        {
          "indexed": false,
          "internalType": "uint64",
          "name": "voterID",
          "type": "uint64"
        },
        {
          "indexed": false,
          "internalType": "uint64",
          "name": "numCoins",
          "type": "uint64"
        }
      ],
      "name": "CoinsAllotted",
      "type": "event"
    },
    {
      "anonymous": false,
      "inputs": [
        {
          "indexed": false,
          "internalType": "uint64",
          "name": "candidateID",
          "type": "uint64"
        },
        {
          "indexed": false,
          "internalType": "uint64",
          "name": "numVotes",
          "type": "uint64"
        }
      ],
      "name": "DeclareVotes",
      "type": "event"
    },
    {
      "anonymous": false,
      "inputs": [],
      "name": "ElectionStarted",
      "type": "event"
    },
    {
      "anonymous": false,
      "inputs": [
        {
          "indexed": false,
          "internalType": "uint64",
          "name": "voterID",
          "type": "uint64"
        },
        {
          "indexed": false,
          "internalType": "bytes32",
          "name": "voteCoinIndexEncrypted",
          "type": "bytes32"
        },
        {
          "indexed": false,
          "internalType": "bytes32",
          "name": "keyEncrypted",
          "type": "bytes32"
        }
      ],
      "name": "VoteCoinEncrypted",
      "type": "event"
    },
    {
      "anonymous": false,
      "inputs": [
        {
          "indexed": false,
          "internalType": "uint64",
          "name": "voterID",
          "type": "uint64"
        },
        {
          "indexed": false,
          "internalType": "uint256",
          "name": "voteCoinIndex",
          "type": "uint256"
        },
        {
          "indexed": false,
          "internalType": "uint256",
          "name": "voteCoinKey",
          "type": "uint256"
        }
      ],
      "name": "VoteCoinIndexReveal",
      "type": "event"
    },
    {
      "anonymous": false,
      "inputs": [
        {
          "indexed": false,
          "internalType": "uint64",
          "name": "voterID",
          "type": "uint64"
        },
        {
          "indexed": false,
          "internalType": "address",
          "name": "voterAddress",
          "type": "address"
        }
      ],
      "name": "VoterAdded",
      "type": "event"
    },
    {
      "anonymous": false,
      "inputs": [],
      "name": "VoterSignUpStart",
      "type": "event"
    },
    {
      "inputs": [],
      "name": "acceptCandidates",
      "outputs": [],
      "stateMutability": "nonpayable",
      "type": "function"
    },
    {
      "inputs": [],
      "name": "acceptVoters",
      "outputs": [],
      "stateMutability": "nonpayable",
      "type": "function"
    },
    {
      "inputs": [
        {
          "internalType": "address",
          "name": "addr",
          "type": "address"
        }
      ],
      "name": "addCandidate",
      "outputs": [],
      "stateMutability": "nonpayable",
      "type": "function"
    },
    {
      "inputs": [
        {
          "internalType": "address",
          "name": "addr",
          "type": "address"
        }
      ],
      "name": "addVoter",
      "outputs": [],
      "stateMutability": "nonpayable",
      "type": "function"
    },
    {
      "inputs": [],
      "name": "electionStage",
      "outputs": [
        {
          "internalType": "enum VotingBase.ElectionStage",
          "name": "",
          "type": "uint8"
        }
      ],
      "stateMutability": "view",
      "type": "function",
      "constant": true
    },
    {
      "inputs": [],
      "name": "getElectionStatus",
      "outputs": [
        {
          "internalType": "uint256",
          "name": "",
          "type": "uint256"
        }
      ],
      "stateMutability": "view",
      "type": "function",
      "constant": true
    },
    {
      "inputs": [],
      "name": "getNumberOfCandidates",
      "outputs": [
        {
          "internalType": "uint64",
          "name": "",
          "type": "uint64"
        }
      ],
      "stateMutability": "view",
      "type": "function",
      "constant": true
    },
    {
      "inputs": [],
      "name": "getNumberOfVoters",
      "outputs": [
        {
          "internalType": "uint64",
          "name": "",
          "type": "uint64"
        }
      ],
      "stateMutability": "view",
      "type": "function",
      "constant": true
    },
    {
      "inputs": [],
      "name": "owner",
      "outputs": [
        {
          "internalType": "address payable",
          "name": "",
          "type": "address"
        }
      ],
      "stateMutability": "view",
      "type": "function",
      "constant": true
    },
    {
      "inputs": [
        {
          "internalType": "uint8",
          "name": "val",
          "type": "uint8"
        }
      ],
      "name": "setDummyCoinValue",
      "outputs": [],
      "stateMutability": "nonpayable",
      "type": "function"
    },
    {
      "inputs": [],
      "name": "getDummyCoinValue",
      "outputs": [
        {
          "internalType": "uint64",
          "name": "",
          "type": "uint64"
        }
      ],
      "stateMutability": "view",
      "type": "function",
      "constant": true
    },
    {
      "inputs": [],
      "name": "startElection",
      "outputs": [],
      "stateMutability": "nonpayable",
      "type": "function"
    },
    {
      "inputs": [
        {
          "internalType": "uint64",
          "name": "voterID",
          "type": "uint64"
        }
      ],
      "name": "getVoteCoinIndex",
      "outputs": [
        {
          "internalType": "uint256",
          "name": "",
          "type": "uint256"
        }
      ],
      "stateMutability": "view",
      "type": "function",
      "constant": true
    },
    {
      "inputs": [
        {
          "internalType": "uint64",
          "name": "voterID",
          "type": "uint64"
        }
      ],
      "name": "coinsLeft",
      "outputs": [
        {
          "internalType": "uint64",
          "name": "",
          "type": "uint64"
        }
      ],
      "stateMutability": "view",
      "type": "function",
      "constant": true
    },
    {
      "inputs": [
        {
          "internalType": "uint64",
          "name": "voterID",
          "type": "uint64"
        },
        {
          "internalType": "uint64",
          "name": "candidateID",
          "type": "uint64"
        },
        {
          "internalType": "uint8",
          "name": "coinIndex",
          "type": "uint8"
        }
      ],
      "name": "sendCoin",
      "outputs": [],
      "stateMutability": "nonpayable",
      "type": "function"
    },
    {
      "inputs": [],
      "name": "startReveal",
      "outputs": [],
      "stateMutability": "nonpayable",
      "type": "function"
    },
    {
      "inputs": [],
      "name": "endElection",
      "outputs": [],
      "stateMutability": "nonpayable",
      "type": "function"
    },
    {
      "inputs": [],
      "name": "getWinner",
      "outputs": [
        {
          "internalType": "uint64",
          "name": "",
          "type": "uint64"
        }
      ],
      "stateMutability": "view",
      "type": "function",
      "constant": true
    },
    {
      "inputs": [],
      "name": "clearData",
      "outputs": [],
      "stateMutability": "nonpayable",
      "type": "function"
    }
  ],
  "bytecode": "0x60806040526000600360166101000a81548160ff0219169083151502179055503480156200002c57600080fd5b5033600360006101000a81548173ffffffffffffffffffffffffffffffffffffffff021916908373ffffffffffffffffffffffffffffffffffffffff1602179055506000600260006101000a81548167ffffffffffffffff021916908367ffffffffffffffff1602179055506000600260086101000a81548167ffffffffffffffff021916908367ffffffffffffffff1602179055506000600360146101000a81548160ff02191690836004811115620000eb57620000ea62000120565b5b02179055506000600260106101000a81548167ffffffffffffffff021916908367ffffffffffffffff1602179055506200014f565b7f4e487b7100000000000000000000000000000000000000000000000000000000600052602160045260246000fd5b613259806200015f6000396000f3fe608060405234801561001057600080fd5b50600436106101215760003560e01c8063831762fc116100ad578063ad72202b11610071578063ad72202b14610286578063b9e7a43914610290578063d5c8f2461461029a578063dc4cc037146102b8578063f4ab9adf146102e857610121565b8063831762fc1461020457806384865b661461020e5780638da5cb5b1461022c5780638e7ea5b21461024a57806390facad11461026857610121565b806359f78468116100f457806359f784681461019857806362d73eb8146101a257806374b5d9e5146101ac578063780b69f2146101dc5780637a84d13e146101e657610121565b8063122902a61461012657806324d0a9461461014457806337936267146101605780633acd75f81461017c575b600080fd5b61012e610304565b60405161013b91906122e2565b60405180910390f35b61015e6004803603810190610159919061237b565b610460565b005b61017a600480360381019061017591906123ce565b610a9d565b005b61019660048036038101906101919190612459565b610b4c565b005b6101a0610da1565b005b6101aa610fd8565b005b6101c660048036038101906101c19190612486565b61119f565b6040516101d391906122e2565b60405180910390f35b6101e461136b565b005b6101ee61143a565b6040516101fb91906124c2565b60405180910390f35b61020c611458565b005b610216611527565b60405161022391906124c2565b60405180910390f35b610234611545565b60405161024191906124fe565b60405180910390f35b61025261156b565b60405161025f91906124c2565b60405180910390f35b610270611660565b60405161027d9190612590565b60405180910390f35b61028e611673565b005b6102986116a0565b005b6102a2611b04565b6040516102af91906124c2565b60405180910390f35b6102d260048036038101906102cd9190612486565b611b74565b6040516102df91906124c2565b60405180910390f35b61030260048036038101906102fd9190612459565b611c43565b005b600080600481111561031957610318612519565b5b600360149054906101000a900460ff16600481111561033b5761033a612519565b5b03610349576000905061045d565b6001600481111561035d5761035c612519565b5b600360149054906101000a900460ff16600481111561037f5761037e612519565b5b0361038d576001905061045d565b600260048111156103a1576103a0612519565b5b600360149054906101000a900460ff1660048111156103c3576103c2612519565b5b036103d1576002905061045d565b600360048111156103e5576103e4612519565b5b600360149054906101000a900460ff16600481111561040757610406612519565b5b03610415576003905061045d565b60048081111561042857610427612519565b5b600360149054906101000a900460ff16600481111561044a57610449612519565b5b03610458576004905061045d565b600a90505b90565b6003600481111561047457610473612519565b5b600360149054906101000a900460ff16600481111561049657610495612519565b5b146104d6576040517f08c379a00000000000000000000000000000000000000000000000000000000081526004016104cd90612608565b60405180910390fd5b600260089054906101000a900467ffffffffffffffff1667ffffffffffffffff168367ffffffffffffffff161115610543576040517f08c379a000000000000000000000000000000000000000000000000000000000815260040161053a90612674565b60405180910390fd5b60008367ffffffffffffffff1611610590576040517f08c379a000000000000000000000000000000000000000000000000000000000815260040161058790612674565b60405180910390fd5b600260009054906101000a900467ffffffffffffffff1667ffffffffffffffff168267ffffffffffffffff1611156105fd576040517f08c379a00000000000000000000000000000000000000000000000000000000081526004016105f4906126e0565b60405180910390fd5b60008267ffffffffffffffff161161064a576040517f08c379a000000000000000000000000000000000000000000000000000000000815260040161064190612674565b60405180910390fd5b600160008467ffffffffffffffff1667ffffffffffffffff16815260200190815260200160002060000160009054906101000a900473ffffffffffffffffffffffffffffffffffffffff1673ffffffffffffffffffffffffffffffffffffffff163373ffffffffffffffffffffffffffffffffffffffff1614610702576040517f08c379a00000000000000000000000000000000000000000000000000000000081526004016106f99061274c565b60405180910390fd5b6001600360159054906101000a900460ff1661071e919061279b565b60ff168160ff161115610766576040517f08c379a000000000000000000000000000000000000000000000000000000000815260040161075d9061281c565b60405180910390fd5b600760008467ffffffffffffffff1667ffffffffffffffff168152602001908152602001600020548160ff16036108c85760011515600660008567ffffffffffffffff1667ffffffffffffffff16815260200190815260200160002060009054906101000a900460ff16151514610812576040517f08c379a000000000000000000000000000000000000000000000000000000000815260040161080990612888565b60405180910390fd5b6000600660008567ffffffffffffffff1667ffffffffffffffff16815260200190815260200160002060006101000a81548160ff0219169083151502179055506001600960008467ffffffffffffffff1667ffffffffffffffff16815260200190815260200160002060008282829054906101000a900467ffffffffffffffff1661089d91906128a8565b92506101000a81548167ffffffffffffffff021916908367ffffffffffffffff160217905550610a5d565b60008160ff166001901b600560008667ffffffffffffffff1667ffffffffffffffff16815260200190815260200160002060009054906101000a900467ffffffffffffffff1667ffffffffffffffff161614610959576040517f08c379a000000000000000000000000000000000000000000000000000000000815260040161095090612930565b60405180910390fd5b8060ff166001901b600560008567ffffffffffffffff1667ffffffffffffffff16815260200190815260200160002060009054906101000a900467ffffffffffffffff1617600560008567ffffffffffffffff1667ffffffffffffffff16815260200190815260200160002060006101000a81548167ffffffffffffffff021916908367ffffffffffffffff1602179055506001600460008567ffffffffffffffff1667ffffffffffffffff16815260200190815260200160002060008282829054906101000a900467ffffffffffffffff16610a369190612950565b92506101000a81548167ffffffffffffffff021916908367ffffffffffffffff1602179055505b7fd3409b24b0b684eef9400bd434dcdf044d63346b5d37224745762d5b0c0878c7838383604051610a90939291906129c7565b60405180910390a1505050565b60036004811115610ab157610ab0612519565b5b600360149054906101000a900460ff166004811115610ad357610ad2612519565b5b03610b13576040517f08c379a0000000000000000000000000000000000000000000000000000000008152600401610b0a90612a4a565b60405180910390fd5b80600360156101000a81548160ff021916908360ff1602179055506001600360166101000a81548160ff02191690831515021790555050565b60016004811115610b6057610b5f612519565b5b600360149054906101000a900460ff166004811115610b8257610b81612519565b5b14610bc2576040517f08c379a0000000000000000000000000000000000000000000000000000000008152600401610bb990612adc565b60405180910390fd5b6002600081819054906101000a900467ffffffffffffffff1680929190610be890612afc565b91906101000a81548167ffffffffffffffff021916908367ffffffffffffffff1602179055505060405180606001604052808273ffffffffffffffffffffffffffffffffffffffff168152602001600067ffffffffffffffff168152602001600260009054906101000a900467ffffffffffffffff1667ffffffffffffffff16815250600080600260009054906101000a900467ffffffffffffffff1667ffffffffffffffff1667ffffffffffffffff16815260200190815260200160002060008201518160000160006101000a81548173ffffffffffffffffffffffffffffffffffffffff021916908373ffffffffffffffffffffffffffffffffffffffff16021790555060208201518160000160146101000a81548167ffffffffffffffff021916908367ffffffffffffffff16021790555060408201518160010160006101000a81548167ffffffffffffffff021916908367ffffffffffffffff1602179055509050507f8d00bfe6541fbc67e2fd4571ed73e0aad85db5923afe2fbba92a09144b31e0dd600260009054906101000a900467ffffffffffffffff1682604051610d96929190612b3b565b60405180910390a150565b600480811115610db457610db3612519565b5b600360149054906101000a900460ff166004811115610dd657610dd5612519565b5b14610e16576040517f08c379a0000000000000000000000000000000000000000000000000000000008152600401610e0d90612bb0565b60405180910390fd5b6000600190505b600260089054906101000a900467ffffffffffffffff1667ffffffffffffffff168167ffffffffffffffff1611610eea577fd206825d55681c658b5a312cb55622a5a90a936fa4cd168a25ad3a83487060f381600760008467ffffffffffffffff1667ffffffffffffffff16815260200190815260200160002054600860008567ffffffffffffffff1667ffffffffffffffff16815260200190815260200160002054604051610ecf93929190612bd0565b60405180910390a18080610ee290612afc565b915050610e1d565b506000600190505b600260009054906101000a900467ffffffffffffffff1667ffffffffffffffff168167ffffffffffffffff1611610faa577fcbd6eff1d60c390596651dd253749fcffe8f7430207efab52095388ec297b61281600960008467ffffffffffffffff1667ffffffffffffffff16815260200190815260200160002060009054906101000a900467ffffffffffffffff16604051610f8f929190612c07565b60405180910390a18080610fa290612afc565b915050610ef2565b506000600360146101000a81548160ff02191690836004811115610fd157610fd0612519565b5b0217905550565b60026004811115610fec57610feb612519565b5b600360149054906101000a900460ff16600481111561100e5761100d612519565b5b1461104e576040517f08c379a000000000000000000000000000000000000000000000000000000000815260040161104590612c7c565b60405180910390fd5b60011515600360169054906101000a900460ff161515146110a4576040517f08c379a000000000000000000000000000000000000000000000000000000000815260040161109b90612d0e565b60405180910390fd5b6110ac611ea2565b6000600190505b600260009054906101000a900467ffffffffffffffff1667ffffffffffffffff168167ffffffffffffffff1611611146576000600960008367ffffffffffffffff1667ffffffffffffffff16815260200190815260200160002060006101000a81548167ffffffffffffffff021916908367ffffffffffffffff160217905550808061113e90612afc565b9150506110b3565b5060038060146101000a81548160ff0219169083600481111561116c5761116b612519565b5b02179055507fc475c26aa25ed8e85a7faa790e5f63b5d7ee1025f12821f4c9bfddd36ab4d11260405160405180910390a1565b6000600260089054906101000a900467ffffffffffffffff1667ffffffffffffffff168267ffffffffffffffff16111561120e576040517f08c379a000000000000000000000000000000000000000000000000000000000815260040161120590612d7a565b60405180910390fd5b600160008367ffffffffffffffff1667ffffffffffffffff16815260200190815260200160002060000160009054906101000a900473ffffffffffffffffffffffffffffffffffffffff1673ffffffffffffffffffffffffffffffffffffffff163373ffffffffffffffffffffffffffffffffffffffff16146112c6576040517f08c379a00000000000000000000000000000000000000000000000000000000081526004016112bd9061274c565b60405180910390fd5b600360048111156112da576112d9612519565b5b600360149054906101000a900460ff1660048111156112fc576112fb612519565b5b1461133c576040517f08c379a000000000000000000000000000000000000000000000000000000000815260040161133390612de6565b60405180910390fd5b600760008367ffffffffffffffff1667ffffffffffffffff168152602001908152602001600020549050919050565b6001600481111561137f5761137e612519565b5b600360149054906101000a900460ff1660048111156113a1576113a0612519565b5b146113e1576040517f08c379a00000000000000000000000000000000000000000000000000000000081526004016113d890612e78565b60405180910390fd5b6002600360146101000a81548160ff0219169083600481111561140757611406612519565b5b02179055507f52390d093f1580e0920b5c7ac7ab032276a944ac8e7677c8071124c6c1a593fa60405160405180910390a1565b6000600260009054906101000a900467ffffffffffffffff16905090565b6000600481111561146c5761146b612519565b5b600360149054906101000a900460ff16600481111561148e5761148d612519565b5b146114ce576040517f08c379a00000000000000000000000000000000000000000000000000000000081526004016114c590612ee4565b60405180910390fd5b6001600360146101000a81548160ff021916908360048111156114f4576114f3612519565b5b02179055507f5b167a95338384b523d9caa350daf44bba1418ffcfba3f903255e8b8443ff1f660405160405180910390a1565b6000600260089054906101000a900467ffffffffffffffff16905090565b600360009054906101000a900473ffffffffffffffffffffffffffffffffffffffff1681565b60008060009050600080600190505b600260009054906101000a900467ffffffffffffffff1667ffffffffffffffff168167ffffffffffffffff1611611657578267ffffffffffffffff16600960008367ffffffffffffffff1667ffffffffffffffff16815260200190815260200160002060009054906101000a900467ffffffffffffffff1667ffffffffffffffff16111561164457600960008267ffffffffffffffff1667ffffffffffffffff16815260200190815260200160002060009054906101000a900467ffffffffffffffff1692508091505b808061164f90612afc565b91505061157a565b50809250505090565b600360149054906101000a900460ff1681565b6004600360146101000a81548160ff0219169083600481111561169957611698612519565b5b0217905550565b600060048111156116b4576116b3612519565b5b600360149054906101000a900460ff1660048111156116d6576116d5612519565b5b14611716576040517f08c379a000000000000000000000000000000000000000000000000000000000815260040161170d90612f50565b60405180910390fd5b6000600190505b600260089054906101000a900467ffffffffffffffff1667ffffffffffffffff168167ffffffffffffffff16116117e157600160008267ffffffffffffffff1667ffffffffffffffff168152602001908152602001600020600080820160006101000a81549073ffffffffffffffffffffffffffffffffffffffff02191690556000820160146101000a81549067ffffffffffffffff021916905560008201601c6101000a81549060ff0219169055505080806117d990612afc565b91505061171d565b506000600190505b600260009054906101000a900467ffffffffffffffff1667ffffffffffffffff168167ffffffffffffffff16116118b3576000808267ffffffffffffffff1667ffffffffffffffff168152602001908152602001600020600080820160006101000a81549073ffffffffffffffffffffffffffffffffffffffff02191690556000820160146101000a81549067ffffffffffffffff02191690556001820160006101000a81549067ffffffffffffffff0219169055505080806118ab90612afc565b9150506117e9565b506000600190505b600260089054906101000a900467ffffffffffffffff1667ffffffffffffffff168167ffffffffffffffff1611611a0857600460008267ffffffffffffffff1667ffffffffffffffff16815260200190815260200160002060006101000a81549067ffffffffffffffff0219169055600560008267ffffffffffffffff1667ffffffffffffffff16815260200190815260200160002060006101000a81549067ffffffffffffffff0219169055600660008267ffffffffffffffff1667ffffffffffffffff16815260200190815260200160002060006101000a81549060ff0219169055600760008267ffffffffffffffff1667ffffffffffffffff16815260200190815260200160002060009055600860008267ffffffffffffffff1667ffffffffffffffff168152602001908152602001600020600090558080611a0090612afc565b9150506118bb565b506000600190505b600260009054906101000a900467ffffffffffffffff1667ffffffffffffffff168167ffffffffffffffff1611611a9257600960008267ffffffffffffffff1667ffffffffffffffff16815260200190815260200160002060006101000a81549067ffffffffffffffff02191690558080611a8a90612afc565b915050611a10565b506000600360166101000a81548160ff0219169083151502179055506000600260006101000a81548167ffffffffffffffff021916908367ffffffffffffffff1602179055506000600260086101000a81548167ffffffffffffffff021916908367ffffffffffffffff160217905550565b600060011515600360169054906101000a900460ff16151514611b5c576040517f08c379a0000000000000000000000000000000000000000000000000000000008152600401611b5390612fbc565b60405180910390fd5b600360159054906101000a900460ff1660ff16905090565b6000600660008367ffffffffffffffff1667ffffffffffffffff16815260200190815260200160002060009054906101000a900460ff1615611bff57600460008367ffffffffffffffff1667ffffffffffffffff16815260200190815260200160002060009054906101000a900467ffffffffffffffff166001611bf891906128a8565b9050611c3e565b600460008367ffffffffffffffff1667ffffffffffffffff16815260200190815260200160002060009054906101000a900467ffffffffffffffff1690505b919050565b60026004811115611c5757611c56612519565b5b600360149054906101000a900460ff166004811115611c7957611c78612519565b5b14611cb9576040517f08c379a0000000000000000000000000000000000000000000000000000000008152600401611cb090613028565b60405180910390fd5b6002600881819054906101000a900467ffffffffffffffff1680929190611cdf90612afc565b91906101000a81548167ffffffffffffffff021916908367ffffffffffffffff1602179055505060405180606001604052808273ffffffffffffffffffffffffffffffffffffffff168152602001600260089054906101000a900467ffffffffffffffff1667ffffffffffffffff16815260200160006002811115611d6757611d66612519565b5b81525060016000600260089054906101000a900467ffffffffffffffff1667ffffffffffffffff1667ffffffffffffffff16815260200190815260200160002060008201518160000160006101000a81548173ffffffffffffffffffffffffffffffffffffffff021916908373ffffffffffffffffffffffffffffffffffffffff16021790555060208201518160000160146101000a81548167ffffffffffffffff021916908367ffffffffffffffff160217905550604082015181600001601c6101000a81548160ff02191690836002811115611e4857611e47612519565b5b02179055509050507f2cfdc9c35cab2e6aa026614bb83dc0d0367a0b93e478ed5853ef13c155684d6f600260089054906101000a900467ffffffffffffffff1682604051611e97929190612b3b565b60405180910390a150565b6000600190505b600260089054906101000a900467ffffffffffffffff1667ffffffffffffffff168167ffffffffffffffff16116121f357600360159054906101000a900460ff1660ff16600460008367ffffffffffffffff1667ffffffffffffffff16815260200190815260200160002060006101000a81548167ffffffffffffffff021916908367ffffffffffffffff1602179055506000600560008367ffffffffffffffff1667ffffffffffffffff16815260200190815260200160002060006101000a81548167ffffffffffffffff021916908367ffffffffffffffff1602179055506001600660008367ffffffffffffffff1667ffffffffffffffff16815260200190815260200160002060006101000a81548160ff021916908315150217905550611fe6600360159054906101000a900460ff1660ff1660006121f6565b600760008367ffffffffffffffff1667ffffffffffffffff168152602001908152602001600020819055507f7229cc10566fd3ba7cfdb2b7f56802226da332ad81b451e101d1f05c70ad61f2816001600460008567ffffffffffffffff1667ffffffffffffffff16815260200190815260200160002060009054906101000a900467ffffffffffffffff1661207b91906128a8565b604051612089929190612c07565b60405180910390a16120a265ffffffffffff60006121f6565b600860008367ffffffffffffffff1667ffffffffffffffff168152602001908152602001600020819055506000600860008367ffffffffffffffff1667ffffffffffffffff16815260200190815260200160002054600760008467ffffffffffffffff1667ffffffffffffffff168152602001908152602001600020546121299190613048565b604051602001612139919061309d565b6040516020818303038152906040528051906020012090506000600860008467ffffffffffffffff1667ffffffffffffffff1681526020019081526020016000205460405160200161218b919061309d565b6040516020818303038152906040528051906020012090507ff359d4855783807d84cfdb07503e09236df19f56535c7b5feaad7abd0f64e3b28383836040516121d6939291906130d1565b60405180910390a1505080806121eb90612afc565b915050611ea9565b50565b600081836122049190612950565b67ffffffffffffffff164233600260109054906101000a900467ffffffffffffffff1660405160200161223993929190613186565b6040516020818303038152906040528051906020012060001c61225c91906131f2565b90508167ffffffffffffffff16816122749190613048565b90506002601081819054906101000a900467ffffffffffffffff168092919061229c90612afc565b91906101000a81548167ffffffffffffffff021916908367ffffffffffffffff1602179055505092915050565b6000819050919050565b6122dc816122c9565b82525050565b60006020820190506122f760008301846122d3565b92915050565b600080fd5b600067ffffffffffffffff82169050919050565b61231f81612302565b811461232a57600080fd5b50565b60008135905061233c81612316565b92915050565b600060ff82169050919050565b61235881612342565b811461236357600080fd5b50565b6000813590506123758161234f565b92915050565b600080600060608486031215612394576123936122fd565b5b60006123a28682870161232d565b93505060206123b38682870161232d565b92505060406123c486828701612366565b9150509250925092565b6000602082840312156123e4576123e36122fd565b5b60006123f284828501612366565b91505092915050565b600073ffffffffffffffffffffffffffffffffffffffff82169050919050565b6000612426826123fb565b9050919050565b6124368161241b565b811461244157600080fd5b50565b6000813590506124538161242d565b92915050565b60006020828403121561246f5761246e6122fd565b5b600061247d84828501612444565b91505092915050565b60006020828403121561249c5761249b6122fd565b5b60006124aa8482850161232d565b91505092915050565b6124bc81612302565b82525050565b60006020820190506124d760008301846124b3565b92915050565b60006124e8826123fb565b9050919050565b6124f8816124dd565b82525050565b600060208201905061251360008301846124ef565b92915050565b7f4e487b7100000000000000000000000000000000000000000000000000000000600052602160045260246000fd5b6005811061255957612558612519565b5b50565b600081905061256a82612548565b919050565b600061257a8261255c565b9050919050565b61258a8161256f565b82525050565b60006020820190506125a56000830184612581565b92915050565b600082825260208201905092915050565b7f456c656374696f6e206e6f7420756e6465727761792100000000000000000000600082015250565b60006125f26016836125ab565b91506125fd826125bc565b602082019050919050565b60006020820190508181036000830152612621816125e5565b9050919050565b7f496e76616c696420766f74657220494421000000000000000000000000000000600082015250565b600061265e6011836125ab565b915061266982612628565b602082019050919050565b6000602082019050818103600083015261268d81612651565b9050919050565b7f496e76616c69642063616e646964617465204944210000000000000000000000600082015250565b60006126ca6015836125ab565b91506126d582612694565b602082019050919050565b600060208201905081810360008301526126f9816126bd565b9050919050565b7f4261642072657175657374210000000000000000000000000000000000000000600082015250565b6000612736600c836125ab565b915061274182612700565b602082019050919050565b6000602082019050818103600083015261276581612729565b9050919050565b7f4e487b7100000000000000000000000000000000000000000000000000000000600052601160045260246000fd5b60006127a682612342565b91506127b183612342565b9250828201905060ff8111156127ca576127c961276c565b5b92915050565b7f496e76616c696420636f696e20696e6465782100000000000000000000000000600082015250565b60006128066013836125ab565b9150612811826127d0565b602082019050919050565b60006020820190508181036000830152612835816127f9565b9050919050565b7f436f696e20616c7265616479207370656e74212028766f746520636f696e2900600082015250565b6000612872601f836125ab565b915061287d8261283c565b602082019050919050565b600060208201905081810360008301526128a181612865565b9050919050565b60006128b382612302565b91506128be83612302565b9250828201905067ffffffffffffffff8111156128de576128dd61276c565b5b92915050565b7f436f696e20616c7265616479207370656e7421202864756d6d7920636f696e29600082015250565b600061291a6020836125ab565b9150612925826128e4565b602082019050919050565b600060208201905081810360008301526129498161290d565b9050919050565b600061295b82612302565b915061296683612302565b9250828203905067ffffffffffffffff8111156129865761298561276c565b5b92915050565b6000819050919050565b60006129b16129ac6129a784612342565b61298c565b612302565b9050919050565b6129c181612996565b82525050565b60006060820190506129dc60008301866124b3565b6129e960208301856124b3565b6129f660408301846129b8565b949350505050565b7f456c656374696f6e20616c726561647920756e64657277617900000000000000600082015250565b6000612a346019836125ab565b9150612a3f826129fe565b602082019050919050565b60006020820190508181036000830152612a6381612a27565b9050919050565b7f4e6f7420616363657074696e672063616e64696461746573207269676874206e60008201527f6f77000000000000000000000000000000000000000000000000000000000000602082015250565b6000612ac66022836125ab565b9150612ad182612a6a565b604082019050919050565b60006020820190508181036000830152612af581612ab9565b9050919050565b6000612b0782612302565b915067ffffffffffffffff8203612b2157612b2061276c565b5b600182019050919050565b612b358161241b565b82525050565b6000604082019050612b5060008301856124b3565b612b5d6020830184612b2c565b9392505050565b7f52657665616c206e6f7420737461727465642079657421000000000000000000600082015250565b6000612b9a6017836125ab565b9150612ba582612b64565b602082019050919050565b60006020820190508181036000830152612bc981612b8d565b9050919050565b6000606082019050612be560008301866124b3565b612bf260208301856122d3565b612bff60408301846122d3565b949350505050565b6000604082019050612c1c60008301856124b3565b612c2960208301846124b3565b9392505050565b7f566f74657273206e6f7420726567697374657265642079657400000000000000600082015250565b6000612c666019836125ab565b9150612c7182612c30565b602082019050919050565b60006020820190508181036000830152612c9581612c59565b9050919050565b7f536574206e756d626572206f662064756d6d7920636f696e20666f722065616360008201527f6820766f74657200000000000000000000000000000000000000000000000000602082015250565b6000612cf86027836125ab565b9150612d0382612c9c565b604082019050919050565b60006020820190508181036000830152612d2781612ceb565b9050919050565b7f496e76616c696420494421000000000000000000000000000000000000000000600082015250565b6000612d64600b836125ab565b9150612d6f82612d2e565b602082019050919050565b60006020820190508181036000830152612d9381612d57565b9050919050565b7f4e6f20656c656374696f6e2072756e6e696e6721000000000000000000000000600082015250565b6000612dd06014836125ab565b9150612ddb82612d9a565b602082019050919050565b60006020820190508181036000830152612dff81612dc3565b9050919050565b7f43616e64696461746573206e6f7420726567697374657265642074696c6c206e60008201527f6f77000000000000000000000000000000000000000000000000000000000000602082015250565b6000612e626022836125ab565b9150612e6d82612e06565b604082019050919050565b60006020820190508181036000830152612e9181612e55565b9050919050565b7f456c656374696f6e20616c72656164792072756e6e696e670000000000000000600082015250565b6000612ece6018836125ab565b9150612ed982612e98565b602082019050919050565b60006020820190508181036000830152612efd81612ec1565b9050919050565b7f456c656374696f6e20696e2070726f6772657373210000000000000000000000600082015250565b6000612f3a6015836125ab565b9150612f4582612f04565b602082019050919050565b60006020820190508181036000830152612f6981612f2d565b9050919050565b7f56616c7565206e6f742073657420796574210000000000000000000000000000600082015250565b6000612fa66012836125ab565b9150612fb182612f70565b602082019050919050565b60006020820190508181036000830152612fd581612f99565b9050919050565b7f4e6f7420616363657074696e6720766f74657273207269676874206e6f770000600082015250565b6000613012601e836125ab565b915061301d82612fdc565b602082019050919050565b6000602082019050818103600083015261304181613005565b9050919050565b6000613053826122c9565b915061305e836122c9565b92508282019050808211156130765761307561276c565b5b92915050565b6000819050919050565b613097613092826122c9565b61307c565b82525050565b60006130a98284613086565b60208201915081905092915050565b6000819050919050565b6130cb816130b8565b82525050565b60006060820190506130e660008301866124b3565b6130f360208301856130c2565b61310060408301846130c2565b949350505050565b60008160601b9050919050565b600061312082613108565b9050919050565b600061313282613115565b9050919050565b61314a6131458261241b565b613127565b82525050565b60008160c01b9050919050565b600061316882613150565b9050919050565b61318061317b82612302565b61315d565b82525050565b60006131928286613086565b6020820191506131a28285613139565b6014820191506131b2828461316f565b600882019150819050949350505050565b7f4e487b7100000000000000000000000000000000000000000000000000000000600052601260045260246000fd5b60006131fd826122c9565b9150613208836122c9565b925082613218576132176131c3565b5b82820690509291505056fea26469706673582212202ceaeb1e78dc077b43354e2755fb7d2ce554815fab109af331d7beae3c1349f064736f6c63430008100033",
  "immutableReferences": {},
  "source": "// SPDX-License-Identifier: MIT\npragma solidity >=0.8.16;\npragma experimental ABIEncoderV2;\n\nimport {VotingBase} from \"./VotingBase.sol\";\n\ncontract HCA_Elections is VotingBase {\n    uint8 private numDummyCoins;\n    bool private dummyCoinValueSet = false;\n\n    constructor() VotingBase() {}\n\n    mapping(uint64 => uint64) dummyCoins;\n    mapping(uint64 => uint64) dummyCoinStatus;\n    mapping(uint64 => bool) voteCoins;\n    mapping(uint64 => uint256) voteCoinIndex;\n    mapping(uint64 => uint256) voteCoinKey;\n    mapping(uint64 => uint64) votesRecved;\n\n    function setDummyCoinValue(uint8 val) public {\n        require(\n            electionStage != ElectionStage.RUNNING,\n            \"Election already underway\"\n        );\n        numDummyCoins = val;\n        dummyCoinValueSet = true;\n    }\n\n    function getDummyCoinValue() public view returns (uint64) {\n        require(dummyCoinValueSet == true, \"Value not set yet!\");\n        return numDummyCoins;\n    }\n\n    function allotCoins() private {\n        for (uint64 i = 1; i <= numVoters; i++) {\n            dummyCoins[i] = numDummyCoins;\n            dummyCoinStatus[i] = 0;\n            voteCoins[i] = true;\n            voteCoinIndex[i] = random(numDummyCoins, 0);\n            emit CoinsAllotted(i, dummyCoins[i] + 1);\n            voteCoinKey[i] = random(0xffffffffffff, 0);\n            bytes32 voteCoinIndexEncrypted = keccak256(\n                abi.encodePacked(voteCoinIndex[i] + voteCoinKey[i])\n            );\n            bytes32 keyEncrypted = keccak256(abi.encodePacked(voteCoinKey[i]));\n            emit VoteCoinEncrypted(i, voteCoinIndexEncrypted, keyEncrypted);\n        }\n    }\n\n    function startElection() public override startElectionModifier {\n        require(\n            dummyCoinValueSet == true,\n            \"Set number of dummy coin for each voter\"\n        );\n        // require(electionStage == ElectionStage.AWAITING_VOTER_LIST); // This is done as part of modifier\n        allotCoins();\n        for (uint64 i = 1; i <= numCandidates; i++) {\n            votesRecved[i] = 0;\n        }\n        electionStage = ElectionStage.RUNNING;\n        emit ElectionStarted();\n    }\n\n    function getVoteCoinIndex(uint64 voterID) public view returns (uint256) {\n        require(voterID <= numVoters, \"Invalid ID!\");\n        require(msg.sender == indexToVoter[voterID].addr, \"Bad request!\");\n        require(electionStage == ElectionStage.RUNNING, \"No election running!\");\n        return voteCoinIndex[voterID];\n    }\n\n    function coinsLeft(uint64 voterID) public view returns (uint64) {\n        if (voteCoins[voterID]) return 1 + dummyCoins[voterID];\n        return dummyCoins[voterID];\n    }\n\n    function sendCoin(\n        uint64 voterID,\n        uint64 candidateID,\n        uint8 coinIndex\n    ) public {\n        require(\n            electionStage == ElectionStage.RUNNING,\n            \"Election not underway!\"\n        );\n        require(voterID <= numVoters, \"Invalid voter ID!\");\n        require(voterID > 0, \"Invalid voter ID!\");\n        require(candidateID <= numCandidates, \"Invalid candidate ID!\");\n        require(candidateID > 0, \"Invalid voter ID!\");\n        require(msg.sender == indexToVoter[voterID].addr, \"Bad request!\");\n        require(coinIndex <= numDummyCoins + 1, \"Invalid coin index!\");\n        if (coinIndex == voteCoinIndex[voterID]) {\n            require(\n                voteCoins[voterID] == true,\n                \"Coin already spent! (vote coin)\"\n            );\n            voteCoins[voterID] = false;\n            votesRecved[candidateID] += 1;\n        } else {\n            require(\n                (dummyCoinStatus[voterID] & (1 << coinIndex)) == 0,\n                \"Coin already spent! (dummy coin)\"\n            );\n            dummyCoinStatus[voterID] =\n                dummyCoinStatus[voterID] |\n                uint64(1 << coinIndex);\n            dummyCoins[voterID] -= 1;\n        }\n        emit CoinSent(voterID, candidateID, coinIndex);\n    }\n\n    function startReveal() public override {\n        electionStage = ElectionStage.REVEALING;\n    }\n\n    function endElection() public override endElectionModifier {\n        for (uint64 i = 1; i <= numVoters; i++) {\n            emit VoteCoinIndexReveal(i, voteCoinIndex[i], voteCoinKey[i]);\n        }\n        for (uint64 i = 1; i <= numCandidates; i++) {\n            emit DeclareVotes(i, votesRecved[i]);\n        }\n        electionStage = ElectionStage.NOT_RUNNING;\n    }\n\n    function getWinner() public view override returns (uint64) {\n        uint64 maxVotes = 0;\n        uint64 winnerID = 0;\n        for (uint64 i = 1; i <= numCandidates; i++) {\n            if (votesRecved[i] > maxVotes) {\n                maxVotes = votesRecved[i];\n                winnerID = i;\n            }\n        }\n        return winnerID;\n    }\n\n    function clearData() public override clearDataModifier {\n        for (uint64 i = 1; i <= numVoters; i++) {\n            delete (dummyCoins[i]);\n            delete (dummyCoinStatus[i]);\n            delete (voteCoins[i]);\n            delete (voteCoinIndex[i]);\n            delete (voteCoinKey[i]);\n        }\n        for (uint64 i = 1; i <= numCandidates; i++) {\n            delete (votesRecved[i]);\n        }\n        dummyCoinValueSet = false;\n    }\n\n    event ElectionStarted();\n    event CoinsAllotted(uint64 voterID, uint64 numCoins);\n    event VoteCoinEncrypted(\n        uint64 voterID,\n        bytes32 voteCoinIndexEncrypted,\n        bytes32 keyEncrypted\n    );\n    event CoinSent(uint64 voterID, uint64 candidateID, uint64 coinIndex);\n    event VoteCoinIndexReveal(\n        uint64 voterID,\n        uint256 voteCoinIndex,\n        uint256 voteCoinKey\n    );\n    event DeclareVotes(uint64 candidateID, uint64 numVotes);\n}\n",
  "sourcePath": "/home/kjain1810/Desktop/padhai/sem7/dtb/Voting-With-Blockchains/contracts/HCA.sol",
  "compiler": {
    "name": "solc",
    "version": "0.8.16+commit.07a7930e.Emscripten.clang"
  },
  "schemaVersion": "3.4.9",
  "updatedAt": "2022-11-14T12:25:58.553Z",
  "networkType": "ethereum",
  "devdoc": {
    "kind": "dev",
    "methods": {},
    "version": 1
  },
  "userdoc": {
    "kind": "user",
    "methods": {},
    "version": 1
  }
}