{
  "contractName": "HPA_Elections",
  "abi": [
    {
      "inputs": [],
      "stateMutability": "nonpayable",
      "type": "constructor"
    },
    {
      "anonymous": false,
      "inputs": [
        {
          "indexed": false,
          "internalType": "uint64",
          "name": "candidateID",
          "type": "uint64"
        },
        {
          "indexed": false,
          "internalType": "address",
          "name": "candidateAddress",
          "type": "address"
        }
      ],
      "name": "CandidateAdded",
      "type": "event"
    },
    {
      "anonymous": false,
      "inputs": [],
      "name": "CandidateSignUpStart",
      "type": "event"
    },
    {
      "anonymous": false,
      "inputs": [
        {
          "indexed": false,
          "internalType": "uint64",
          "name": "voterID",
          "type": "uint64"
        },
        {
          "indexed": false,
          "internalType": "address",
          "name": "voterAddress",
          "type": "address"
        }
      ],
      "name": "VoterAdded",
      "type": "event"
    },
    {
      "anonymous": false,
      "inputs": [],
      "name": "VoterSignUpStart",
      "type": "event"
    },
    {
      "inputs": [],
      "name": "acceptCandidates",
      "outputs": [],
      "stateMutability": "nonpayable",
      "type": "function"
    },
    {
      "inputs": [],
      "name": "acceptVoters",
      "outputs": [],
      "stateMutability": "nonpayable",
      "type": "function"
    },
    {
      "inputs": [
        {
          "internalType": "address",
          "name": "addr",
          "type": "address"
        }
      ],
      "name": "addCandidate",
      "outputs": [],
      "stateMutability": "nonpayable",
      "type": "function"
    },
    {
      "inputs": [
        {
          "internalType": "address",
          "name": "addr",
          "type": "address"
        }
      ],
      "name": "addVoter",
      "outputs": [],
      "stateMutability": "nonpayable",
      "type": "function"
    },
    {
      "inputs": [],
      "name": "clearData",
      "outputs": [],
      "stateMutability": "nonpayable",
      "type": "function"
    },
    {
      "inputs": [],
      "name": "electionStage",
      "outputs": [
        {
          "internalType": "enum VotingBase.ElectionStage",
          "name": "",
          "type": "uint8"
        }
      ],
      "stateMutability": "view",
      "type": "function",
      "constant": true
    },
    {
      "inputs": [],
      "name": "endElection",
      "outputs": [],
      "stateMutability": "nonpayable",
      "type": "function"
    },
    {
      "inputs": [],
      "name": "getElectionStatus",
      "outputs": [
        {
          "internalType": "uint256",
          "name": "",
          "type": "uint256"
        }
      ],
      "stateMutability": "view",
      "type": "function",
      "constant": true
    },
    {
      "inputs": [],
      "name": "getNumberOfCandidates",
      "outputs": [
        {
          "internalType": "uint64",
          "name": "",
          "type": "uint64"
        }
      ],
      "stateMutability": "view",
      "type": "function",
      "constant": true
    },
    {
      "inputs": [],
      "name": "getNumberOfVoters",
      "outputs": [
        {
          "internalType": "uint64",
          "name": "",
          "type": "uint64"
        }
      ],
      "stateMutability": "view",
      "type": "function",
      "constant": true
    },
    {
      "inputs": [],
      "name": "getWinner",
      "outputs": [
        {
          "internalType": "uint64",
          "name": "",
          "type": "uint64"
        }
      ],
      "stateMutability": "view",
      "type": "function",
      "constant": true
    },
    {
      "inputs": [],
      "name": "owner",
      "outputs": [
        {
          "internalType": "address payable",
          "name": "",
          "type": "address"
        }
      ],
      "stateMutability": "view",
      "type": "function",
      "constant": true
    },
    {
      "inputs": [],
      "name": "startElection",
      "outputs": [],
      "stateMutability": "nonpayable",
      "type": "function"
    },
    {
      "inputs": [],
      "name": "startReveal",
      "outputs": [],
      "stateMutability": "nonpayable",
      "type": "function"
    }
  ],
  "bytecode": "0x608060405234801561001057600080fd5b5033600360006101000a81548173ffffffffffffffffffffffffffffffffffffffff021916908373ffffffffffffffffffffffffffffffffffffffff1602179055506000600260006101000a81548167ffffffffffffffff021916908367ffffffffffffffff1602179055506000600260086101000a81548167ffffffffffffffff021916908367ffffffffffffffff1602179055506000600360146101000a81548160ff021916908360048111156100cc576100cb610100565b5b02179055506000600260106101000a81548167ffffffffffffffff021916908367ffffffffffffffff16021790555061012f565b7f4e487b7100000000000000000000000000000000000000000000000000000000600052602160045260246000fd5b6114908061013e6000396000f3fe608060405234801561001057600080fd5b50600436106100ea5760003560e01c806384865b661161008c57806390facad11161006657806390facad1146101c9578063ad72202b146101e7578063b9e7a439146101f1578063f4ab9adf146101fb576100ea565b806384865b661461016f5780638da5cb5b1461018d5780638e7ea5b2146101ab576100ea565b806362d73eb8116100c857806362d73eb814610133578063780b69f21461013d5780637a84d13e14610147578063831762fc14610165576100ea565b8063122902a6146100ef5780633acd75f81461010d57806359f7846814610129575b600080fd5b6100f7610217565b6040516101049190610e29565b60405180910390f35b61012760048036038101906101229190610ea7565b610373565b005b6101316105c8565b005b61013b61063f565b005b6101456106b7565b005b61014f610786565b60405161015c9190610ef7565b60405180910390f35b61016d6107a4565b005b610177610873565b6040516101849190610ef7565b60405180910390f35b610195610891565b6040516101a29190610f33565b60405180910390f35b6101b36108b7565b6040516101c09190610ef7565b60405180910390f35b6101d16108bc565b6040516101de9190610fc5565b60405180910390f35b6101ef6108cf565b005b6101f9610947565b005b61021560048036038101906102109190610ea7565b610bb1565b005b600080600481111561022c5761022b610f4e565b5b600360149054906101000a900460ff16600481111561024e5761024d610f4e565b5b0361025c5760009050610370565b600160048111156102705761026f610f4e565b5b600360149054906101000a900460ff16600481111561029257610291610f4e565b5b036102a05760019050610370565b600260048111156102b4576102b3610f4e565b5b600360149054906101000a900460ff1660048111156102d6576102d5610f4e565b5b036102e45760029050610370565b600360048111156102f8576102f7610f4e565b5b600360149054906101000a900460ff16600481111561031a57610319610f4e565b5b036103285760039050610370565b60048081111561033b5761033a610f4e565b5b600360149054906101000a900460ff16600481111561035d5761035c610f4e565b5b0361036b5760049050610370565b600a90505b90565b6001600481111561038757610386610f4e565b5b600360149054906101000a900460ff1660048111156103a9576103a8610f4e565b5b146103e9576040517f08c379a00000000000000000000000000000000000000000000000000000000081526004016103e090611063565b60405180910390fd5b6002600081819054906101000a900467ffffffffffffffff168092919061040f906110b2565b91906101000a81548167ffffffffffffffff021916908367ffffffffffffffff1602179055505060405180606001604052808273ffffffffffffffffffffffffffffffffffffffff168152602001600067ffffffffffffffff168152602001600260009054906101000a900467ffffffffffffffff1667ffffffffffffffff16815250600080600260009054906101000a900467ffffffffffffffff1667ffffffffffffffff1667ffffffffffffffff16815260200190815260200160002060008201518160000160006101000a81548173ffffffffffffffffffffffffffffffffffffffff021916908373ffffffffffffffffffffffffffffffffffffffff16021790555060208201518160000160146101000a81548167ffffffffffffffff021916908367ffffffffffffffff16021790555060408201518160010160006101000a81548167ffffffffffffffff021916908367ffffffffffffffff1602179055509050507f8d00bfe6541fbc67e2fd4571ed73e0aad85db5923afe2fbba92a09144b31e0dd600260009054906101000a900467ffffffffffffffff16826040516105bd9291906110f1565b60405180910390a150565b6004808111156105db576105da610f4e565b5b600360149054906101000a900460ff1660048111156105fd576105fc610f4e565b5b1461063d576040517f08c379a000000000000000000000000000000000000000000000000000000000815260040161063490611166565b60405180910390fd5b565b6002600481111561065357610652610f4e565b5b600360149054906101000a900460ff16600481111561067557610674610f4e565b5b146106b5576040517f08c379a00000000000000000000000000000000000000000000000000000000081526004016106ac906111d2565b60405180910390fd5b565b600160048111156106cb576106ca610f4e565b5b600360149054906101000a900460ff1660048111156106ed576106ec610f4e565b5b1461072d576040517f08c379a000000000000000000000000000000000000000000000000000000000815260040161072490611264565b60405180910390fd5b6002600360146101000a81548160ff0219169083600481111561075357610752610f4e565b5b02179055507f52390d093f1580e0920b5c7ac7ab032276a944ac8e7677c8071124c6c1a593fa60405160405180910390a1565b6000600260009054906101000a900467ffffffffffffffff16905090565b600060048111156107b8576107b7610f4e565b5b600360149054906101000a900460ff1660048111156107da576107d9610f4e565b5b1461081a576040517f08c379a0000000000000000000000000000000000000000000000000000000008152600401610811906112d0565b60405180910390fd5b6001600360146101000a81548160ff021916908360048111156108405761083f610f4e565b5b02179055507f5b167a95338384b523d9caa350daf44bba1418ffcfba3f903255e8b8443ff1f660405160405180910390a1565b6000600260089054906101000a900467ffffffffffffffff16905090565b600360009054906101000a900473ffffffffffffffffffffffffffffffffffffffff1681565b600090565b600360149054906101000a900460ff1681565b600360048111156108e3576108e2610f4e565b5b600360149054906101000a900460ff16600481111561090557610904610f4e565b5b14610945576040517f08c379a000000000000000000000000000000000000000000000000000000000815260040161093c90611362565b60405180910390fd5b565b6000600481111561095b5761095a610f4e565b5b600360149054906101000a900460ff16600481111561097d5761097c610f4e565b5b146109bd576040517f08c379a00000000000000000000000000000000000000000000000000000000081526004016109b4906113ce565b60405180910390fd5b6000600190505b600260089054906101000a900467ffffffffffffffff1667ffffffffffffffff168167ffffffffffffffff1611610a8857600160008267ffffffffffffffff1667ffffffffffffffff168152602001908152602001600020600080820160006101000a81549073ffffffffffffffffffffffffffffffffffffffff02191690556000820160146101000a81549067ffffffffffffffff021916905560008201601c6101000a81549060ff021916905550508080610a80906110b2565b9150506109c4565b506000600190505b600260009054906101000a900467ffffffffffffffff1667ffffffffffffffff168167ffffffffffffffff1611610b5a576000808267ffffffffffffffff1667ffffffffffffffff168152602001908152602001600020600080820160006101000a81549073ffffffffffffffffffffffffffffffffffffffff02191690556000820160146101000a81549067ffffffffffffffff02191690556001820160006101000a81549067ffffffffffffffff021916905550508080610b52906110b2565b915050610a90565b506000600260006101000a81548167ffffffffffffffff021916908367ffffffffffffffff1602179055506000600260086101000a81548167ffffffffffffffff021916908367ffffffffffffffff160217905550565b60026004811115610bc557610bc4610f4e565b5b600360149054906101000a900460ff166004811115610be757610be6610f4e565b5b14610c27576040517f08c379a0000000000000000000000000000000000000000000000000000000008152600401610c1e9061143a565b60405180910390fd5b6002600881819054906101000a900467ffffffffffffffff1680929190610c4d906110b2565b91906101000a81548167ffffffffffffffff021916908367ffffffffffffffff1602179055505060405180606001604052808273ffffffffffffffffffffffffffffffffffffffff168152602001600260089054906101000a900467ffffffffffffffff1667ffffffffffffffff16815260200160006002811115610cd557610cd4610f4e565b5b81525060016000600260089054906101000a900467ffffffffffffffff1667ffffffffffffffff1667ffffffffffffffff16815260200190815260200160002060008201518160000160006101000a81548173ffffffffffffffffffffffffffffffffffffffff021916908373ffffffffffffffffffffffffffffffffffffffff16021790555060208201518160000160146101000a81548167ffffffffffffffff021916908367ffffffffffffffff160217905550604082015181600001601c6101000a81548160ff02191690836002811115610db657610db5610f4e565b5b02179055509050507f2cfdc9c35cab2e6aa026614bb83dc0d0367a0b93e478ed5853ef13c155684d6f600260089054906101000a900467ffffffffffffffff1682604051610e059291906110f1565b60405180910390a150565b6000819050919050565b610e2381610e10565b82525050565b6000602082019050610e3e6000830184610e1a565b92915050565b600080fd5b600073ffffffffffffffffffffffffffffffffffffffff82169050919050565b6000610e7482610e49565b9050919050565b610e8481610e69565b8114610e8f57600080fd5b50565b600081359050610ea181610e7b565b92915050565b600060208284031215610ebd57610ebc610e44565b5b6000610ecb84828501610e92565b91505092915050565b600067ffffffffffffffff82169050919050565b610ef181610ed4565b82525050565b6000602082019050610f0c6000830184610ee8565b92915050565b6000610f1d82610e49565b9050919050565b610f2d81610f12565b82525050565b6000602082019050610f486000830184610f24565b92915050565b7f4e487b7100000000000000000000000000000000000000000000000000000000600052602160045260246000fd5b60058110610f8e57610f8d610f4e565b5b50565b6000819050610f9f82610f7d565b919050565b6000610faf82610f91565b9050919050565b610fbf81610fa4565b82525050565b6000602082019050610fda6000830184610fb6565b92915050565b600082825260208201905092915050565b7f4e6f7420616363657074696e672063616e64696461746573207269676874206e60008201527f6f77000000000000000000000000000000000000000000000000000000000000602082015250565b600061104d602283610fe0565b915061105882610ff1565b604082019050919050565b6000602082019050818103600083015261107c81611040565b9050919050565b7f4e487b7100000000000000000000000000000000000000000000000000000000600052601160045260246000fd5b60006110bd82610ed4565b915067ffffffffffffffff82036110d7576110d6611083565b5b600182019050919050565b6110eb81610e69565b82525050565b60006040820190506111066000830185610ee8565b61111360208301846110e2565b9392505050565b7f52657665616c206e6f7420737461727465642079657421000000000000000000600082015250565b6000611150601783610fe0565b915061115b8261111a565b602082019050919050565b6000602082019050818103600083015261117f81611143565b9050919050565b7f566f74657273206e6f7420726567697374657265642079657400000000000000600082015250565b60006111bc601983610fe0565b91506111c782611186565b602082019050919050565b600060208201905081810360008301526111eb816111af565b9050919050565b7f43616e64696461746573206e6f7420726567697374657265642074696c6c206e60008201527f6f77000000000000000000000000000000000000000000000000000000000000602082015250565b600061124e602283610fe0565b9150611259826111f2565b604082019050919050565b6000602082019050818103600083015261127d81611241565b9050919050565b7f456c656374696f6e20616c72656164792072756e6e696e670000000000000000600082015250565b60006112ba601883610fe0565b91506112c582611284565b602082019050919050565b600060208201905081810360008301526112e9816112ad565b9050919050565b7f456c656374696f6e206e6f742072756e6e696e6720617420746865206d6f6d6560008201527f6e74210000000000000000000000000000000000000000000000000000000000602082015250565b600061134c602383610fe0565b9150611357826112f0565b604082019050919050565b6000602082019050818103600083015261137b8161133f565b9050919050565b7f456c656374696f6e20696e2070726f6772657373210000000000000000000000600082015250565b60006113b8601583610fe0565b91506113c382611382565b602082019050919050565b600060208201905081810360008301526113e7816113ab565b9050919050565b7f4e6f7420616363657074696e6720766f74657273207269676874206e6f770000600082015250565b6000611424601e83610fe0565b915061142f826113ee565b602082019050919050565b6000602082019050818103600083015261145381611417565b905091905056fea264697066735822122063b4cbd20152361f47055cab28cf05cadf3f7cbaffb51b5c53d3f7186594c54764736f6c63430008100033",
  "immutableReferences": {},
  "source": "// SPDX-License-Identifier: MIT\npragma solidity >=0.8.16;\npragma experimental ABIEncoderV2;\n\nimport {VotingBase} from \"./VotingBase.sol\";\n\ncontract HPA_Elections is VotingBase {\n    constructor() VotingBase() {}\n}\n",
  "sourcePath": "/home/kjain1810/Desktop/padhai/sem7/dtb/Voting-With-Blockchains/contracts/HPA.sol",
  "compiler": {
    "name": "solc",
    "version": "0.8.16+commit.07a7930e.Emscripten.clang"
  },
  "schemaVersion": "3.4.9",
  "updatedAt": "2022-11-14T12:25:58.664Z",
  "networkType": "ethereum",
  "devdoc": {
    "kind": "dev",
    "methods": {},
    "version": 1
  },
  "userdoc": {
    "kind": "user",
    "methods": {},
    "version": 1
  }
}